S00B0000434E432E7372656345
S214400000E00E4320251540002115400021154000F4
S2144000102115400021154000211540000000000039
S2144000200000000000000000000000002115400015
S2144000302115400000000000211540002115400019
S214400040211540002115400051494000211540002F
S2144000502115400021154000211540002115400083
S214400060211540000000000055444000494440002F
S2144000706D444000211540002115400021154000E8
S21440008061444000211540002115400021154000E4
S2144000902115400021154000211540004D4B4000E1
S2144000A02115400021154000211540002115400033
S2144000B0211540002115400021154000D94540003B
S2144000C02115400021154000211540002115400013
S2144000D02115400021154000211540002115400003
S2144000E021154000211540002115400021154000F3
S2144000F0211540002115400021154000614B40006D
S21440010021154000211540002115400021154000D2
S2144001102115400000000000000000000000000024
S21440012021154000211540002115400021154000B2
S214400130ED454000211540002115400021154000A6
S2144001402115400021154000211540002115400092
S2144001502115400021154000211540002115400082
S214400160211540002115400010B5054C237833B9C1
S214400170044B13B10448AFF300800123237010BD35
S214400180200240200000000020CF40000C4B43B12E
S2144001900C480D4910B5AFF300800C48036823B9EE
S2144001A010BD0A48036833B97047094B002BF7D097
S2144001B0BDE810401847064B002BF5D0184700BF47
S2144001C00000000020CF40002402402020CF400006
S2144001D00000000008B5044B9847044B9847044B72
S2144001E09847044B984708BD1D1B4000FD584000EB
S2144001F0A1174000D159400070B5A4B00246254929
S21440020001A8254B984701A92448254B984700202C
S214400210244B9847E8B90025224C2846A04700289A
S214400220FBD1214C002221492046214B98470120F2
S214400230204B9847012201A904F50C701E4B9847A5
S214400240044650B91D481E4B98471E4D1E4C1F4E27
S21440025011E01F48124B9847DDE71E48184DA84747
S2144002601D48A847204613E004A930460C4B984743
S21440027004A81A4B98472A46802104A8A04700287D
S214400280F2D117480E4B98470E48164B9847002019
S21440029024B070BD14C34000818540001CC340009C
S2144002A0D5814000354F40003C02402030C54000DC
S2144002B0012C4000E5314000692C4000A0C34000BE
S2144002C0BD8240006C04402081304000C4C34000E2
S2144002D034C3400060C340007CC34000DD0940009A
S2144002E0CCC340005530400008B5034B9847032028
S2144002F0024B984708BD00BF791240008509400070
S21440030008B5034B98470220024B984708BD00BFEC
S214400310791240008509400008B5034B98470120F4
S214400320024B984708BD00BF79124000850940003F
S21440033008B5034B98470020024B984708BD00BFBE
S214400340791240008509400070B5174C0F26C4F856
S2144003508C604FF080632362C4F8843013497A205F
S214400360134DA847134BC3F88C604FF000421A62F7
S214400370C3F8842010495F20A847C4F88C604FF02B
S21440038080432362C4F884300C497E20A8470C4B37
S214400390C3F88C604FF400221A62C3F884200949DF
S2144003A01320A84770BD00BF00140E403103400024
S2144003B08132400000120E40190340000103400005
S2144003C0000E0E40E902400000B5A1B0114B984720
S2144003D0114B9847114B9847114B9847114B9847EC
S2144003E01148124B9847124A12491348134B9847E4
S2144003F0134E124C134D3046A0472B685A68802146
S2144004006846114B984769461048A0476846104BC7
S2144004109847F0E7D5014000CD104000490940001C
S214400420311240004903400014C44000BD824000E1
S2144004303CC4400048C4400054C44000D5814000FD
S21440044070C440005000402069754000C8C340005A
S214400450DD094000000000002DE9F04F87B006EEB1
S214400460902A034601AA1430F3EC017AB1EC017AE3
S21440047077EEC77AE2EC017A8342F5D13E4B1C68B0
S2144004800134C4F30B041A4653689C42FCD03A4EDF
S21440049035684FEA450808EB050706EB07170023C3
S2144004A087F82C30FB619FED357AC7EE267AFDEE55
S2144004B0E77AF8EEE77AC7ED0A7ADFF8D4B0019823
S2144004C0D847DFF8D0A000222D4BD047DFF8C890A1
S2144004D0C847B8600298D8470022294BD047C8473B
S2144004E0F8600398D8470022264BD047C847386163
S2144004F00498D8471EA3D3E90023D047C84778615D
S2144005000598D8471AA3D3E90023D047C847B8610F
S214400510FF6908EB050000010836021F324400F16F
S214400520180131441030304401264FF0000E536815
S214400530002BB4BF81F800E00E70002BB8BF5B42C2
S21440054042F8043F9F4238BF1F4601318242EED1F7
S214400550094B05EB450503EB0515EF611C600A48A2
S2144005600A4B984707B0BDE8F08F00BFAFF3008056
S214400570E7FDC6711CC751409006402020265749CB
S2144005800000944000009940500843203538400011
S214400590DDBB400085BC4000A55B4000F8B50E4B77
S2144005A01C680134C4F30B041D4627466B68A342FF
S2144005B0FCD0094D2E6873009C1905EB04144FF0CF
S2144005C0010E84F82CE084F82D00216362632F60CE
S2144005D00248034B9847F8BD9006402050084320F9
S2144005E035384000074B1A685B689A4207D0054882
S2144005F04368083003EB430300EB031070470020CA
S214400600704700BF90064020054B1A685B689A42C8
S21440061005D0034A53680133C3F30B035360704756
S2144006209006402008B5014B984708BD5904400045
S2144006302DE9F04F2DED0A8B91B0044689469DF882
S21440064098B09B00C1180191D018029090ED007AA6
S214400650D1ED009A77EE299A9DF89010890065189A
S21440066002EB0108D8ED007A95ED00AA37EE8AAA8B
S214400670B1EE47CAB1EE678A4B44D3ED008A78EEB6
S214400680C78A494491ED009A39EE679A234649460F
S2144006900BAA04F11400B3EC017AF1EC017A77EE80
S2144006A0277AE2EC017A8342F5D12CEE287A68EE7E
S2144006B0097A974E77EE277A17EE900AB047CDE93B
S2144006C004012CEE099A68EE288A79EE687A17EECD
S2144006D0900AB047DDE904238E4EB0478E4B9847CC
S2144006E008EE900ABBF1000F6CD0BBF1010F0BD1A6
S2144006F0F5EEC08AF1EE10FA4CBF01230023B4BFDA
S21440070001220022D3424DD0814E68EEA87A17EEE1
S214400710900AB047814F7AA3D3E90023B847804B6D
S2144007209847804B98471FFA80FABAF1200F38BF97
S2144007304FF0200A07EE90AAF8EEE77AC8EEA7BA7E
S2144007409DF894B04FEA8B0BD94499ED007A87EE2A
S21440075027BA6BEEAB7AB0EE009A39EE679A19EE8E
S214400760100AB0470022704BDFF8CC91C847CDE95D
S21440077004011BEE900AB04702460B46DDE9040131
S2144007806A4EB04700226A4BB847634B98470AEE1A
S214400790900AF6EE007A29EE279A4FF001090026D5
S2144007A0029F88E05A4B984702460B4656A1D1E92D
S2144007B00001604EB047584B984707EE900AF1EE5E
S2144007C0678AA1E7F5EEC08AF1EE10FAACBF0123C6
S2144007D000234CBF012200229B1AB3F1FF3F93D166
S2144007E04B4B984748A3D3E90023534EB0474A4B58
S2144007F0984708EE900A87E707EE909AF8EEE77A71
S21440080067EEAB7A17EE900A414B9847CDE9020166
S2144008104A4B9847404B984708EE900ADDE902015C
S214400820474B98473C4B984707EE100AD7ED007A5F
S214400830F1EE677A98ED008A28EEA7CA67EE086A56
S2144008403CEE26CA67EE277A28EE888A37EEC88AB4
S21440085000260DF1180E20686168A268E368AEE8CD
S2144008600F002069CEF800007CEE297A019BC3ED8C
S214400870007A78EE0A7AC5ED007A04EB0B03D3EDE6
S214400880007A77EE8B7AC3ED007A279A06A920463F
S2144008902C4B98470DF1180E20686168A268E368F3
S2144008A0AEE80F002069CEF8000009F101091FFAF2
S2144008B089F3534510D2042E9ED82AEE8C7A69EEE0
S2144008C0087A29EE0CCA2AEE888A3CEE48CA0136D7
S2144008D0F6B237EE278ABCE70BAD0FCD20606160DD
S2144008E0A260E36028682061279A06A90BA8154BEA
S2144008F0984711B0BDEC0A8BBDE8F08FAFF300808F
S214400900FA7E6ABC7493B83FDFCA1616F6211940C1
S214400910DDBB4000BD5C400075C24000D9BE400013
S214400920F159400035C240000000104085BC4000F0
S214400930000018401DB9400021B94000115B40003E
S214400940355C40005904400038B50A4C2822002146
S2144009502046094DA847302200210848A8470123D1
S21440096063760223A3764FF07E53E361044B236005
S21440097038BD00BF9C074320477840006C074320A3
S2144009800000FA43024B03EB8000002343607047AD
S2144009909C07432030B585B00023019302938DF821
S2144009A00C300D78425D12F0DF0F0CD004AC1C44C6
S2144009B004F80C2C0133DBB25A19D2B20A70825CAE
S2144009C012F0DF0FF2D101A8024B9847024B98472E
S2144009D005B030BD9D74400075C240002DE9F0431F
S2144009E02DED028B95B0044614A9012301F8013D74
S2144009F0B84B984707EE900AFDEEE77ACDED0D7AB4
S214400A009DF8347000238DF84F3023783B2B0BD065
S214400A10472B0ED04D2B13D0242B14D02A2B16D078
S214400A202146AD48AD4B984715B0BDEC028BBDE8AE
S214400A30F0834FF000080125A64EDFEDA98AE0E0DE
S214400A404FF00108F7E73846A64B9847ECE7A64C28
S214400A50A64D6068A84706460F46A37E0A93637E67
S214400A600993237E08936069A847CDE9060120696B
S214400A70A847CDE90401E068A847CDE90201A0688F
S214400A80A847CDE9000132463B469948934EB047C9
S214400A902068A84702460B469648B04794ED077A2A
S214400AA0F7EE007AB4EE677AF1EE10FA09D1924882
S214400AB0B0478D4B93F820303BB99048874B9847CA
S214400AC0B2E78F48854B9847F3E78E488E4B98475A
S214400AD0AAE7023314A901F8013DDFF80C9299ED1C
S214400AE0078A2046B04707EE900A68EE277A874B7B
S214400AF0C3ED047A99F82030012B40F0828099EDBE
S214400B00017A77EE277A814BC3ED047A79E0023397
S214400B1014A901F8013DDFF8D09199ED078A2046E7
S214400B20B04707EE900A68EE277A784BC3ED057A11
S214400B3099F82030012B64D199ED027A77EE277A26
S214400B40724BC3ED057A5CE0023314A901F8013D0F
S214400B50DFF8949199ED078A2046B04707EE900A51
S214400B6068EE277A694BC3ED067A99F82030012B58
S214400B7047D199ED037A77EE277A644BC3ED067A30
S214400B803FE0023314A901F8013D2046B04707EE86
S214400B90900A5E4BD861544B93F82030012B30D1ED
S214400BA0514B93ED047A77EE277A584BC3ED077A8C
S214400BB027E0023314A901F8013D2046B04707EE6E
S214400BC0900A524B1862484B93F82030012B18D1AC
S214400BD0454B93ED057A77EE277A4C4BC3ED087A72
S214400BE00FE0023314A901F8013D3F4B93ED078A0D
S214400BF02046B04707EE900A28EE278A434B83EDFF
S214400C00018A9DF84F300020E25C002A00F0B9804F
S214400C10591CC9B2625C2846413A192A00F2AF8094
S214400C200FF2040E5EF822F0830B40007F0D40006A
S214400C30B30B40007F0D40007F0D4000110D40007B
S214400C407F0D40007F0D4000E30B4000910C4000BC
S214400C50B30C40007F0D40007F0D40007F0D4000EC
S214400C607F0D4000470D40007F0D40007F0D400047
S214400C70630D40007F0D40007F0D40007F0D40001B
S214400C807F0D4000D30A40000F0B4000490B400048
S214400C90023314A901F8013D134B93ED078A204611
S214400CA0B04707EE900A28EE278A184B83ED028A53
S214400CB0A7E7023314A901F8013D0B4B93ED078AD1
S214400CC02046B04707EE900A28EE278A0F4B83ED62
S214400CD0038A96E79509400010C54000D58140003C
S214400CE000C08F44F90140009C074320DDBB400014
S214400CF074C44000B4C44000C8C44000ECC44000C3
S214400D00DCC44000FCC44000BD8240006C07432069
S214400D10023314A901F8013DC74B93ED078A2046DC
S214400D20B04707EE900A68EE277AC44BC3ED007AC8
S214400D30F4EEE87AF1EE10FABF4B4CBFC3ED007A02
S214400D40C3ED008A5DE7023314A901F8013D204651
S214400D50B04707EE900AFCEEE77AB84BC3ED097A47
S214400D604FE7023314A901F8013D2046B04707EE8D
S214400D70900AFCEEE77AB14BC3ED0A7A41E70B46A0
S214400D8042E7002840F0C680B8F1000F40F0798175
S214400D909DF834305C2B00F2708101A252F823F0AB
S214400DA01B0F4000330F40004D0F4000890F40009E
S214400DB0290A40007B1040007B1040007B1040001A
S214400DC07B1040007B1040007B1040007B104000B2
S214400DD07B1040007B1040007B1040007B104000A2
S214400DE07B104000C50F4000D50F4000E50F400087
S214400DF0F50F4000FD0F40007B1040007B10400088
S214400E007B1040007B1040007B1040007B10400071
S214400E10071040007B1040007B1040007B104000D5
S214400E207B1040007B1040007B1040007B10400051
S214400E307B1040007B1040007B1040007B10400041
S214400E407B1040007B1040007B1040007B10400031
S214400E507B1040007B1040007B1040007B10400021
S214400E607B1040007B1040007B1040007B10400011
S214400E707B1040007B1040007B1040007B10400001
S214400E807B1040007B1040007B1040007B104000F1
S214400E907B1040007B1040007B1040007B104000E1
S214400EA07B1040007B1040007B1040007B104000D1
S214400EB07B1040007B1040007B1040007B104000C1
S214400EC07B1040007B1040007B1040007B104000B1
S214400ED07B1040007B1040007B1040007B104000A1
S214400EE07B1040007B1040007B1040007B10400091
S214400EF07B1040007B1040007B1040007B10400081
S214400F007B1040007B104000231040002D10400016
S214400F10611040008DF84F3036E7494C494D4A4AFB
S214400F2021462846494B98470FCD0FC42B6823606F
S214400F307AE5414C434D54F8042B21462846434B12
S214400F4098470FCD0FC42B6823606DE53D493C4A5A
S214400F500EAB13A8F1EC017AB2EC017A77EEC77AC1
S214400F60E3EC017A8342F5D13348037E026803926C
S214400F7001220292827E0192427E0092344A0EA95B
S214400F800430344CA0474FE52E492D4A0EAB13A8EB
S214400F90F1EC017AB2EC017A77EEC77AE3EC017AAB
S214400FA08342F5D12448037E0268039200220292CF
S214400FB0827E0192427E0092254A0EA90430254C3C
S214400FC0A04731E51C4B00221A7601225A760222AF
S214400FD09A7629E5184B00221A7602225A76012282
S214400FE09A7621E5144B01221A7602225A7600227E
S214400FF09A7619E5184A104BDA6115E54FF07E529D
S2144010000D4BDA6110E50C4C94F8206025680023FF
S21440101084F820301148FFF7E1FC84F82060256012
S21440102002E50022044B83F82020FDE40122024B17
S21440103083F82020F8E400BF9C0743206C07432039
S214401040A00743207C074320000048442506400074
S21440105070074320310640003333CB4134C540004F
S214401060134C302200212046124B9847124D103424
S2144010700FCC0FC523682B60D6E41048104B98471A
S214401080D2E49DF83430033B062B05D8DFE803F066
S21440109008080804080808000A48094B9847C3E4AB
S2144010A0034B5A6A996A3846074B9847BCE400BFD8
S2144010B06C07432047784000A00743204CC54000BB
S2144010C0BD82400068C540009D0540000B4B4FF474
S2144010D080521A611A601A63A3F580634FF4005178
S2144010E01961196019631A611A601A6303F5C063BF
S2144010F04FF000621A611A601A63704700120E4081
S214401100F8B52DED028B072843D0154608EE101A89
S21440111011D9092847D041D3642837D1002A35D081
S21440112000244FF47A77254E3846B0470134E4B26F
S214401130AC42F9D32AE0032828D3042808D9052846
S21440114024D11F4B4FF480521A611A601A631DE077
S2144011501B4B1A6F22F480521A675A6F42F4805221
S2144011605A674FF480525A60164C2046164B9847A2
S214401170F3EE077A28EE278A0023FCEEC87A17EEAD
S214401180902A40F624112046104CA047BDEC028B16
S214401190F8BD4FF400520A4B5A63F7E74FF48052BB
S2144011A00B4B5A63F2E74FF40052054B1A634FF469
S2144011B0805203F580631A63E8E700BFC5314000FC
S2144011C0000E0E40A4084320B1364000ED364000E5
S2144011D000120E400F4B4FF400325A634FF400217A
S2144011E00D4A516320225A63012203F500735A6365
S2144011F04FF4004203F580635A630023074A137096
S214401200074A1370074A1370074A1370074A137049
S214401210704700BF000E0E4000120E40CC07432021
S214401220C5074320C6074320C4074320FC07432086
S21440123008B5094901228A60084BCB600A74084BFE
S2144012409A60084ADA6000221A740748074B9847A3
S2144012500748084B984708BD1008432091124000A5
S214401260E8074320D5114000500843209D384000F1
S214401270C00843203538400008B50022024B1A60AB
S214401280024B984708BD00BF980643200906400019
S21440129010B54FF40072884B1A630A20874B984764
S2144012A0874B1B68002B00F08180854B1A68854968
S2144012B00B68106803440B60536909688B4206D27A
S2144012C00120814908707F480168C91A01607F493A
S2144012D0086854682044086009688B4206D201209A
S2144012E07B49087079480168C91A016079490868DD
S2144012F094682044086009688B4206D201207649EB
S214401300087074480168C91A016074490868D4684E
S2144013102044086009688B4206D201207049087054
S2144013206E480168C91A01606E490868126902442D
S2144013300A600A68934206D201216B4A11706949D5
S2144013400A68D31A0B60694A1368013313605E4B10
S2144013501B78DBB2012B00F092805D4B1B78DBB232
S214401360012B00F091805C4B1B78DBB2012B00F028
S21440137090805B4B1B78DBB2012B00F08E805A4B83
S2144013801B78DBB2012B00F08C80594959485A4BE8
S2144013909847564B1B684A4A126852699A4240F22E
S2144013A085804FF40072444B5A6310BD534B9847A8
S2144013B0434B186000283DD090F82430012B3CD099
S2144013C000224A4B1A6043695B08464A1360434A08
S2144013D01360404A13603D4A13603A4A1360D0EDAA
S2144013E0087AFCEEE77A17EE901A4548454B984740
S2144013F0334B1B681A7E012A2BD04FF00071424AAD
S21440140051635A7E012A29D004212B4A51639A7E81
S214401410012A27D04021284A5163DA7E012A25D066
S21440142002213A4A51631B7F23BB4FF48032364B2E
S2144014301A633AE7364B984710BDC26AD0ED0A7A2F
S214401440F8EE677A17EE901A90F82500314B9847D9
S21440145010BD4FF000712C4A1163D2E70421164AA2
S2144014601163D4E74021144A1163D6E70221274A84
S2144014701163D8E74FF48032234B5A6315E74FF495
S21440148000320D4B1A6368E74FF40022224B1A6372
S21440149069E72022084B1A636BE701221B4B1A634D
S2144014A06DE74FF40042184B1A636EE70022044B78
S2144014B01A601A4B984774E7000E0E40C53140003C
S2144014C098064320D0074320CC07432000084320FB
S2144014D0C50743200C084320C6074320080843207E
S2144014E0C4074320C8074320FC0743200408432082
S2144014F0E8074320C00843209D384000E5054000EB
S214401500500843207138400000140E4000100E4032
S214401510791240000111400000120E4009064000BA
S214401520FEE7000008B5174B174A9A4210D0174BF3
S214401530144A9A420CD2013B9B1A23F0030304330D
S2144015401344114951F8040B42F8040B9A42F9D15E
S2144015500F4B104A9A420AD2013B9B1A23F00303D0
S21440156004331344002142F8041B9342FBD10A4A39
S2144015700A4B23F07F039360094B9847094B9847E3
S214401580FEE700BF0000402020CF40002002402061
S214401590E00843202002402000ED00E0000040002C
S2144015A049774000C903400010B504460A4B9847A7
S2144015B001280FD020B102280CBF0220012010BD08
S2144015C02046064B984700F00300002814BF002032
S2144015D0022010BD032010BD354F40007D55400011
S2144015E038B504460D46044B9847400001382860FD
S2144015F02046024B984738BDA1554000A9154000EB
S21440160010B504460A4B9847032806D12046084B97
S2144016109847032801D1012010BD38B92046054B14
S2144016209847002814BF0420002010BD012010BD9C
S214401630A9154000C555400008B5054B984720B150
S21440164002280CBF0320012008BD002008BD00BFB3
S214401650A91540002DE9F04F83B0834688461446CE
S2144016601D4601A9174B98472E19019B01339E42F0
S21440167001D9F3201FE00DB3134FDFF85090DFF889
S21440168050A00FE001214046C84798B9D0470030E7
S21440169018BF012000E0022090B9013408F5007818
S2144016A0A64208D0012221465846B8470028E9D02D
S2144016B00228F0D0FF2003B0BDE8F08F0020FAE704
S2144016C0FF20F8E7E115400015564000ED56400073
S2144016D0395740002DE9F04F83B08346884614467C
S2144016E01D4601A9174B98472E19019B01339E4270
S2144016F001D9F3201FE00DB3134FDFF85090DFF809
S21440170050A00FE001214046C84798B9D047003066
S21440171018BF012000E0022090B9013408F5007897
S214401720A64208D0012221465846B8470028E9D0AC
S2144017300228F0D0FF2003B0BDE8F08F0020FAE783
S214401740FF20F8E7E1154000A957400049584000FF
S2144017509558400010B582B0144603291AD8DFE8E1
S21440176001F012070F0201231360002002B010BDE3
S21440177001A9094B9847019B013323600020F5E7F8
S21440178000201070F2E7054B984700280CBF002059
S214401790E320EBE7F320E9E7E1154000A915400018
S2144017A0704700002D4B4FF080521A615A631A66FC
S2144017B0C3F89020196F21F080511967596F114373
S2144017C059675A604FF000721A615A631A66C3F836
S2144017D09020196F11431967596F114359675A6022
S2144017E04FF080421A615A631A66C3F89020196F08
S2144017F021F080411967596F114359675A604FF07D
S21440180000421A615A631A66C3F89020196F21F095
S21440181000411967596F114359675A604FF080620B
S2144018201A615A631A66C3F89020196F21F08061D6
S2144018301967596F114359675A604FF000621A6131
S2144018405A631A66C3F89020196F21F00061196731
S214401850596F114359675A60704700BF000E0E40DB
S214401860044B9B6913F4802F03D14FF48022014B25
S2144018701A61704700060E4008B5054B98474FF072
S21440188080410448044B9847044B984708BD00BF26
S2144018906118400070084320C1334000A51740003F
S2144018A0044B4FF400525A61C3F890205A661A60AF
S2144018B0704700BF00100E40074B4FF400625A615D
S2144018C0C3F890205A661A604FF400225A61C3F853
S2144018D090205A661A607047000E0E40074B4FF035
S2144018E080625A61C3F890205A661A604FF0804270
S2144018F05A61C3F890205A661A60704700140E402A
S214401900074B4FF400525A61C3F890205A661A604B
S2144019104FF000425A61C3F890205A661A607047EA
S21440192000120E40174B1A6F42F080721A675A6FB9
S21440193022F080725A674FF080725A601A6F42F4F3
S21440194000521A675A6F22F400525A674FF40052F8
S2144019505A601A6F22F002021A675A6F22F0020289
S2144019605A6702225A6003F5C0631A6F22F000627B
S2144019701A675A6F22F000625A674FF000625A6048
S214401980704700BF000E0E40044B9B69002B03DBE4
S2144019904FF00042014B1A61704700BF00060E40F0
S2144019A008B5064B9847064B9847064B984702465D
S2144019B005490648064B984708BD00BF89194000B0
S2144019C0251940002D4840000000024028084320CA
S2144019D06D3640000B4B1A6F22F480521A675A6FCE
S2144019E042F480525A674FF480525A601A6F42F45B
S2144019F000021A675A6F42F400025A674FF4000218
S214401A005A607047000E0E40054BD3F8083113F06D
S214401A10805F04D14FF08052014BC3F800217047DD
S214401A2000060E4008B5064B9847064B9847064BAF
S214401A309847024605490648064B984708BD00BFEA
S214401A40091A4000D51940002D48400000C0054006
S214401A50A40843206D36400008B502490248034BAF
S214401A60984708BD60180E40880843203D31400026
S214401A7008B50248024B984708BD00BF10E000E09A
S214401A80B13140000F4B1A6F22F400121A675A6F9A
S214401A9022F400125A674FF400125A600A4AD2F8EB
S214401AA0143143F01003C2F81431084B1A6F42F059
S214401AB010021A675A6F42F010025A6710225A6094
S214401AC0704700BF000E0E400080084000100E40D9
S214401AD0044B9B6913F4804F03D14FF48042014B73
S214401AE01A61704700060E4008B5064B9847064BED
S214401AF09847064B9847024605490648064B98477E
S214401B0008BD00BFD11A4000851A4000714D400004
S214401B100080024044084320213A400070B57B4B89
S214401B2098477B4B9B6913F4806F03D14FF48062D8
S214401B30774B1A61764B9B6913F4006F03D14FF4D1
S214401B400062734B1A61724B9B6913F4805F03D13A
S214401B504FF480526E4B1A616D4B9B6913F4803F75
S214401B6003D14FF480326A4B1A616A4A536843F491
S214401B7000435360684B0421596319611960202261
S214401B805A631A611A6040225A631A611A604FF407
S214401B9000705863186118604FF480625A61C3F849
S214401BA090205A661A604FF400355D631D611D60D3
S214401BB04FF480245C631C611C604FF480025A61C1
S214401BC0C3F890205A661A604FF000565E631E6156
S214401BD01E6003F5007301265E631E611E600226CA
S214401BE05E631E611E605961C3F8901059661960A5
S214401BF008215961C3F890105966196003F50073BF
S214401C004FF4807159631961196058631861186000
S214401C104FF480515963196119604FF480415963FC
S214401C20196119604FF4803159611966C3F89010F4
S214401C3019604FF4002058631861186003F500736C
S214401C404FF400665E631E611E604FF400465E639E
S214401C501E611E605963196119605D631D611D60D8
S214401C605C631C611C605863186118604FF48011F7
S214401C705963196119604FF400115963196119606D
S214401C805A631A611A604FF000725A631A611A60FA
S214401C904FF080525A631A611A60204B9847204B87
S214401CA09847204B9847204B9847204B9847204BC7
S214401CB09847204B9847204B9847154B9B6913F401
S214401CC0000F03D14FF40002114B1A611B4B98478B
S214401CD002461B491B481C4B98470D4BD3F808310E
S214401CE013F4004F04D14FF40042094BC3F80021CF
S214401CF0124B9847024615491548134B9847154BC3
S214401D009847154B9847154B984770BD713B400018
S214401D1000060E4050180E40000E0E407918400047
S214401D20A1184000B9184000DD18400001194000D5
S214401D30A1194000251A4000591A4000494B40005E
S214401D4000C00040C0084320F93740000040014032
S214401D5050084320711A4000E91A400055324000AE
S214401D603AB101388A1811F8013B00F8013F914218
S214401D70F9D1704722B1821800F8011B8242FBD18C
S214401D807047CA7E8B7E43EA02230278032A01D03C
S214401D9018467047487D0A7D42EA002243EA0243DD
S214401DA0F6E710B40468F4B1217820290FD93A290F
S214401DB00DD0224612F8013F202B01D93A2BF9D1FB
S214401DC03A2B07D0002108465DF8044B70470B4677
S214401DD02246F5E730390134A24207D1042905D816
S214401DE001320260EFE74FF0FF31ECE74FF0FF3192
S214401DF0E9E700002DE9F843037913B90020BDE870
S214401E00F8830446C56A00F1300701232A4639465E
S214401E104078134EB047D0B900232371236AEB1A9B
S214401E20A269934216D2E678012E16D94FF00109E0
S214401E30DFF82C80A3691D444B462A463946607815
S214401E40C047013E012EF5D10020BDE8F8830120B1
S214401E50BDE8F8830020BDE8F8830020BDE8F8839D
S214401E60D5164000F8B5C36A8B4214D004460D46DA
S214401E700A4B9847064608B13046F8BD01232A4625
S214401E8004F130016078064FB84710B101264FF094
S214401E90FF35E562F0E70026EEE700BFF51D40009F
S214401EA05516400010B50446002303714FF0FF332B
S214401EB0C3621D4B984708B1032010BD94F82F22EB
S214401EC094F82E3243EA02231BB2184A934201D0BA
S214401ED0022010BD94F8692094F868301B0443EA49
S214401EE0026394F86620134394F8672043EA02237B
S214401EF023F07F430E4A934213D094F8853094F8EB
S214401F008400000440EA036094F88230184394F852
S214401F10833040EA032020F07F40801A18BF01201B
S214401F2010BD002010BD00BF651E400055AAFFFF33
S214401F3046415400B0B108B50368ABB1197809B949
S214401F40092008BDD9888288914201D0092008BD61
S214401F505878064B984700F0010000280CBF002038
S214401F60092008BD09207047092008BD39164000E1
S214401F702DE9F04385B00646174600230360084621
S214401F809C4B9847051EC0F2A3819B4B53F82540B7
S214401F90002C00F0A181346023787BB16078974BA9
S214401FA0984710F0010F09D1002F00F0978100F0FC
S214401FB0040000280CBF00200A208AE1002323707A
S214401FC0E8B260708E4B984710F0010F01D00320A6
S214401FD07FE127B110F0040F01D00A2079E10021FB
S214401FE02046884B98470346012806D00026032BF8
S214401FF000F07681A3B30D206BE123466D4604F1D5
S21440200040006946002705E03A4641F8042B103365
S214402010834212D093F8F221002AF5D093F8F96162
S21440202093F8F821120442EA066293F8F6613243C6
S21440203093F8F76142EA0622E7E704AF4FF002085A
S214402040DFF8C09106E031462046C847034638B11F
S214402050AF42CCD055F8046B002EF4D14346F7E798
S21440206094F83C2094F83B3043EA02231BB2B3F585
S214402070007F01D00D202CE194F8473094F846209C
S21440208052EA03220DD194F8573094F856201204A1
S21440209042EA036294F854301A4394F8553042EAC0
S2144020A00322A26194F84010E1704B1EDBB2012B74
S2144020B001D90D200DE194F83D70A7700FB90D20A1
S2144020C007E17B1E3B4201D00D2002E194F84230EE
S2144020D094F8410040EA0320208110F00F0F40F0B2
S2144020E0018194F8445094F8433053EA05230DD1C7
S2144020F094F8535094F852301B0443EA056394F81E
S21440210050502B4394F8515043EA052394F83FE04F
S21440211094F83E5055EA0E2500F0E68002FB01FC9E
S21440212005EB101101EB0C0E7345C0F0DF80A3EBFE
S2144021300E03B3FBF7F3002B00F0DA8040F6F571A0
S2144021408B4294BF012102214FF6F577BB4200F245
S214402150D98002336361E661354425620EEB06079B
S214402160A762032929D1002840F0C48094F85F0074
S21440217094F85E10090441EA006194F85C0001435B
S21440218094F85D0041EA002161629B0003F2FF1370
S214402190B2EB532FC0F0B0804FF0FF332361E360C3
S2144021A08023637194F8612094F8603043EA0223F8
S2144021B01BB2012B28D0032179E0002800F09E8036
S2144021C06544656202290DD15B0003F2FF13B2EB52
S2144021D0532FC0F095804FF0FF332361E360802398
S2144021E0637164E003EB430003F0010303EB500329
S2144021F0EBE700BFA31D40009C0643203916400075
S21440220001164000A51E4000711C2046424B9847D0
S214402210002855D10023637194F82F2294F82E326B
S21440222043EA02231BB23D4A93424BD194F83320F3
S21440223094F832301B0443EA026394F83020134388
S21440224094F8312043EA0223354A93423CD194F82D
S214402250172294F816321B0443EA026394F81422B9
S214402260134394F8152243EA02232E4A93422DD173
S21440227094F81B2294F81A321B0443EA026394F83B
S2144022801822134394F8192243EA0223236194F850
S2144022901F2294F81E321B0443EA026394F81C2261
S2144022A0134394F81D2243EA0223E360032121707E
S2144022B01D4A938A01339BB29382E380002008E054
S2144022C00321F4E70321F2E70321F0E70321EEE7D9
S2144022D00B2005B0BDE8F0830C20FAE70020F8E7B5
S2144022E00120F6E70D20F4E70D20F2E70D20F0E799
S2144022F00D20EEE70D20ECE70D20EAE70D20E8E79D
S2144023000D20E6E702336361E661354425620EEB55
S2144023100601A16227E700BF651E400055AAFFFFE1
S21440232052526141727241619C06432038B5044660
S2144023302D4B9847034650B92378032B09D00022EB
S21440234011466078294B9847031C18BF012318464E
S21440235038BD6379012BF2D104F130054FF4007299
S21440236000212846224B9847552384F82E32AA232C
S21440237084F82F32522384F8303084F83130612389
S21440238084F83230412284F83320722184F81412C3
S21440239084F8151284F8162284F81732236984F8D4
S2144023A01832C3F3072284F819221A0C84F81A222A
S2144023B01B0E84F81B32E36884F81C32C3F30722F2
S2144023C084F81D221A0C84F81E221B0E84F81F3235
S2144023D0E2690132E262012329466078054DA8474A
S2144023E000236371ABE700BFF51D40005517400062
S2144023F0751D4000D516400002394369023B99429C
S21440240004D28378806A01FB03007047002070473F
S214402410012969D9F8B54369994267D20C46064600
S2144024200378022B2ED0032B40D0012B01D0012065
S214402430F8BD01EB5105016A01EB55212C4B98473D
S21440244010B14FF0FF30F8BD6F1CC5F3080535449A
S21440245095F83050316A01EB57213046244B984767
S21440246010B14FF0FF30F8BDC7F30800304490F885
S214402470300045EA002014F0010F14BF0009C0F3F5
S2144024800B00F8BD016A01EB1421194B984710B1B7
S2144024904FF0FF30F8BD600000F4FF70304490F815
S2144024A0313090F8300040EA0320F8BD016A01EB75
S2144024B0D4110F4B984710B14FF0FF30F8BDA00035
S2144024C000F4FE7000F130023244D17893781B0459
S2144024D043EA0163304490F830001843537840EAAA
S2144024E0032020F07040F8BD012070470120F8BD61
S2144024F0651E40002DE9F0410546C1808468012CE8
S21440250046D00E4603685A69944202D30220BDE87C
S214402510F08164B91A78032A05D01A8996420ED3F8
S2144025200220BDE8F0815A6A002AF6D014469F7809
S2144025303F01BE421AD3F61BDFF8708006E0586AA9
S214402540EC60C0B90220BDE8F0811E4621462868EE
S214402550C0470446B0F1FF3F1DD001281ED92B6866
S2144025605B6998421DD2F31BBE42EED221462868D4
S2144025700D4B9847E4E700EB161028612B68303384
S21440258006F00F0603EB46166E610020BDE8F081AC
S2144025900220BDE8F0810120BDE8F0810220BDE8C0
S2144025A0F0810220BDE8F081F9234000112440006C
S2144025B02DE9F843012940F28B804369994201D3C3
S2144025C0022786E016460C4605460378022B4CD07A
S2144025D0032B5ED0012B01D002277AE001EB510895
S2144025E0016A01EB58213E4B98470746002870D1B8
S2144025F008F10109C8F3080814F0010F1CD0A844DC
S21440260098F8303003F00F0343EA061388F830306A
S21440261001232B71296A01EB59212846304B9847F4
S214402620002859D1C9F30809C6F30712A94489F806
S214402630302001232B714CE0A84488F830600123F9
S2144026402B71296A01EB59212846254B98470028CB
S21440265044D1C9F3080905EB090393F8303023F059
S2144026600F03C6F303221A43E0E7016A01EB142185
S2144026701B4B9847074660BB630003F4FF732B442D
S21440268083F83060C6F3072283F8312001232B718C
S2144026901FE0016A01EBD411114B98470746C0B9B9
S2144026A0A10001F4FE7101F130032B44DA781206E2
S2144026B0294402F07042324381F83020C2F30721A9
S2144026C05970110C9970120EDA7001232B7100E0CC
S2144026D002273846BDE8F8830746FAE70746F8E794
S2144026E0651E40002DE9F0410546884631B9C6686A
S2144026F08EB143699E4228BF01260DE02A4B98477B
S2144027000346012845D9B0F1FF3F47D06A69904259
S21440271044D3464600E001263446234F0BE021468C
S2144027202846B847034670B1B0F1FF3F36D001287F
S21440273034D0B44231D001346B699C42EFD3012E81
S21440274029D90224EBE76FF0704221462846174B02
S2144027509847034610B9B8F1000F0DD19BB9EC600D
S2144027602B69B3F1FF3F1CD0013B2B616B7943F0E3
S21440277001036B71234611E02246414628460B4B27
S21440278098470346EAE7012B0CBF4FF0FF3301237F
S21440279004E0012302E0002300E000231846BDE8E1
S2144027A0F0812346FAE700BF11244000B1254000DF
S2144027B02DE9F047C4880134A3B213B90420BDE81C
S2144027C0F087036913B90420BDE8F0870E46054636
S2144027D014F00F0710D101330361C16831B90368A3
S2144027E01B899C4208D30420BDE8F08700688378A4
S2144027F0013B13EA141808D0EC802B68303303EB07
S21440280047136B610020BDE8F087304B9847814600
S214402810012848D9B0F1FF3F48D028684369994518
S21440282039D316B90420BDE8F087E968284B9847A5
S214402830814610B90720BDE8F087012839D0B0F1AD
S214402840FF3F39D02868234B9847002837D128685F
S2144028504FF40072002130301F4B98472E6849468F
S21440286030461E4B9847F0624FF0010A194E2B68CF
S2144028709A7890450BD283F804A02868B04708BBE6
S2144028802A68D36A0133D36208F10108EFE7DA6AAF
S214402890A2EB0802DA62C5F80C90494628680F4B4E
S2144028A098472861A8E70220BDE8F0870120BDE8E8
S2144028B0F0870220BDE8F0870120BDE8F0870120C0
S2144028C0BDE8F0870120BDE8F08700BF1124400036
S2144028D0E5264000F51D4000751D4000F9234000E8
S2144028E02DE9F04F83B004460D460B782F2B01D0D0
S2144028F05C2B00D101350023A3602B781F2B04D915
S214402900082300930B230193B2E000212046724B2C
S214402910984781460023636106E0B8F1080F01D16D
S2144029202E2A05D04FF00609484603B0BDE8F08F82
S2144029304FEA8C0C5FFA8CFC0098DDF8048011E0BE
S2144029404CF0030C803A654B9A5C1BE0002B40F041
S214402950B680A2F14103DBB2192B1ED84CF0020C14
S2144029603A54013001361EF8012F2F2A18BF202A6C
S2144029701DD95C2A1BD02E2ACFD08045CDD912F047
S214402980800FDDD1222A00F09780554911F8013F8B
S214402990002BDBD09A42F9D1D8E7A2F16103DBB233
S2144029A0192BDDD84CF0010C203AD2B2D8E735448A
S2144029B0212A34BF0423002310B94FF00609B3E799
S2144029C03A78E52A1CD0B8F1080F1CD00CF0030268
S2144029D0012A08BF43F010030CF00C0CBCF1040FA6
S2144029E008BF43F00803FB72002120463A4B984745
S2144029F08146002869D13B4E4FF000083A4F0DE023
S214402A0005223A70DFE74FEA8C0C5FFA8CFCDDE774
S214402A1041462046B8478146002856D1216920685D
S214402A20B0478146002850D161690B78002B38D0DA
S214402A3091F80BA01AF0080FEAD1D4F818B001F1BB
S214402A400B0C5A460B4613F801EB12F8010B864561
S214402A50DED16345F7D19BF80B3013F0040F7FF4BB
S214402A6063AF1AF0100F2DD02068204B9847A06017
S214402A702B785C2B01D02F2B05D115F8013F2F2B3F
S214402A80FBD05C2BF9D0A7690B2220213846184B87
S214402A90984705F1FF3E002006464FF0080884465A
S214402AA060E7A369DB7A03F00403002B14BF4FF002
S214402AB004094FF0050937E74FF0060934E74FF0B1
S214402AC0060931E74FF005092EE7A369DB7AB9F12D
S214402AD0040F7FF429AFE6E7F524400084C54000A4
S214402AE034C64000651E4000B1274000831D4000AC
S214402AF0751D40002DE9F041044600211B4B9847C8
S214402B0000282BD11A4E4FF001081A4F04E04146D8
S214402B102046B847054630BB21692068B047054681
S214402B2008BB63691B78E52B01D0002BEFD12169E8
S214402B3020680F4B9847054610B12846BDE8F081FF
S214402B402022002160690C4B98470B22A1696069DE
S214402B500A4B9847236801221A71EEE70546042877
S214402B60EBD10725E9E7042DFBD0E6E7F524400046
S214402B70651E4000B1274000751D4000611D4000A5
S214402B80012930D92DE9F84304460E464369994257
S214402B9003D302221046BDE8F883174F4FF00009D2
S214402BA0DFF8588003E02E466369AB42F2D93146DF
S214402BB02046B8470546C8B1012819D0B0F1FF3FB6
S214402BC018D04A4631462046C04702460028E1D142
S214402BD02369B3F1FF3FE6D001332361637943F0C5
S214402BE001036371DFE70222104670470022D1E7F7
S214402BF00222CFE70122CDE711244000B125400054
S214402C0010B584B001900091144604A840F8041D05
S214402C10124B9847002816DB114B53F820300BB167
S214402C2000221A70019B9BB100221A70019B0C4A2D
S214402C3042F8203053B1012C08D10022694601A841
S214402C40084B984700E00B2004B010BD0020FBE77F
S214402C500023034A42F820301846F5E7A31D4000FB
S214402C609C064320711F40002DE9F0478CB001912F
S214402C70002800F0A380044615460023036002F0B7
S214402C801E0201A905A8544B98470646002840F066
S214402C90968005F01F0802AB0B93019905A84F4B91
S214402CA0984703460A9F17B9002800F08C8015F015
S214402CB01C0F50D04BB9FB7A13F0110F40F08580B3
S214402CC015F0040F08D0082679E0042B3ED048F0D3
S214402CD008080A9F002B7BD118F0080F4CD0404BB9
S214402CE09847C1B2B973C0F30722FA73C0F30743DB
S214402CF03B74000E7874B975FA753B767876002585
S214402D00FD723D777D77BD77FD77DDF814903946C7
S214402D104846344B9847BD76FD763D757D75012314
S214402D2089F80430054628B3D9F82CA00146484611
S214402D302D4B9847034600284AD10598013DC5606B
S214402D4051462A4B9847A8B1064638E005A8284B76
S214402D5098470346BBE7002B3AD1FB7A13F0100F97
S214402D6035D115F0020F02D013F0010F32D115F015
S214402D70080F01D048F02008059DEB6AE361276202
S214402D8084F806804FF0000884F8078039462846C5
S214402D90144B98472061FA7FBB7F1B0443EA0263CB
S214402DA03A7F13437A7F43EA0223E360C4F80880FD
S214402DB0C4F818802560EB88A38000E009263046DA
S214402DC00CB0BDE8F0870626F9E70726F7E70423A8
S214402DD01E46F4E70723FBE7711F4000E12840004A
S214402DE0D5304000831D4000812B4000651E4000CA
S214402DF0F52A40002DE9F04F83B004468846154634
S214402E0099460023C9F800305C4B9847019048B972
S214402E10E379002B40F0B080A37913F0010F05D181
S214402E2007230193019803B0BDE8F08FE668A368D6
S214402E30F61AAE4228BF2E46002E55D1F2E76169FB
S214402E404F4B984760E00223E3710193EAE7012382
S214402E50E3710193E6E70223E3710193E2E701237E
S214402E60E3710193DEE74FF4007204F1240108EBAE
S214402E704020444B984774E0A26995421AD0A37903
S214402E8013F0400F0CD0012304F124019AF80100FE
S214402E903D4FB847002867D1A37923F04003A3717C
S214402EA0206801232A4604F124014078374FB8476A
S214402EB000285DD1A561A168C1F30801C1F5007580
S214402EC0B54228BF354624312A46214440462D4B3C
S214402ED09847A844A3682B44A360D9F800302B44F5
S214402EE0C9F80030761B9DD0A268C2F30803002BB9
S214402EF0E1D120688378013B03EA522313F0FF07B1
S214402F0008D1002A9BD1206901289CD9B0F1FF3F07
S214402F109DD06061D4F800A0616950461C4B98472C
S214402F200546002897D03D445FEA562BA4D09AF831
S214402F30023007EB0B029A4288BFA3EB070B5FFAFF
S214402F408BF32A4641469AF80100104FB8470028AE
S214402F5085D1A37913F0400F03D0A069401B834569
S214402F6081D84FEA4B25B4E70123E371019359E733
S214402F700123E371019355E7019353E7351F400062
S214402F8011244000611D4000D516400055164000F3
S214402F90F923400038B50446294B98470346D0B934
S214402FA0A27912F0200F16D012F0400F0DD02068F4
S214402FB00123A26904F124014078224DA847002845
S214402FC03BD1A37923F04003A371E16920681E4BEF
S214402FD09847034608B1184638BD256AEB7A43F051
S214402FE02003EB72E3682B77A3891B0A6B77E38990
S214402FF0AB77E37BEB772369AB76C3F30722EA76BE
S2144030001B0C2B751B0A6B75104B9847A875C0F3A5
S2144030100723EB75030C2B76000E68760023AB7403
S214403020EB74A37923F02003A371236801221A715D
S2144030302068074B98470346CDE70123CBE700BF00
S214403040351F4000D5164000651E4000D530400074
S2144030502D23400010B50446074B9847034608B159
S214403060184610BD2046054B984703460028F7D122
S21440307000222260F4E700BF952F4000351F400035
S2144030802DE9F04383B081469046054600244E1E07
S2144030900F4FB44213DA6B46012201A94046B847A7
S2144030A0009B012B0BD19DF804300D2BF1D06A1CF0
S2144030B02B7001340A2B01D01546EAE7154600234B
S2144030C02B709C4214BF4846184603B0BDE8F083B8
S2144030D0F52D400000B583B069460F480F4B984722
S2144030E09DF805009DF804301B0443EA40539DF8C4
S2144030F0000003439DF8020043EAC0239DF8010008
S21440310043EA4013BDF80600A0F2BC7043EA4060B4
S21440311003B05DF804FB00BF8808432081314000BF
S214403120EFF31083036072B6BFF35F8F7047BFF351
S2144031305F8F036883F310887047000038B50D46EC
S214403140044640F2C1120B49003018BF01200A4B1A
S21440315098472368AB4208D04BB925602046074BBA
S214403160984740F2B273636138BD002038BD6FF0B7
S214403170110038BD78C64000953A400031484000BE
S21440318038B50D46044640F222220649003018BFA4
S2144031900120054B984729462046044B9847002077
S2144031A038BD00BF78C64000953A400065484000AC
S2144031B008B5024B1860024B984708BDB40643203A
S2144031C08149400010B5044B1C68044B98470146A3
S2144031D02046034B984710BDB4064320593B400059
S2144031E09549400010B5044B1C68044B984701466F
S2144031F02046034B984710BDB4064320653B40002D
S2144032009549400070B5124BD969884204D00322D4
S214403210072500241E4615E003230D4A52F8333096
S214403220ABB1984770BD013AD5B2A5420FD32B1922
S2144032305B10DAB2062A0AD8134606EBC201496882
S2144032408142EAD08842EED90132D4B2EDE770BD71
S214403250B806432008B5074B03F138004FF0FF315E
S2144032600022596043F8082B8342FAD10248034BA8
S214403270984708BDB80643200532400079444000D0
S2144032802DE9F0410646344B5B6898421ED0324AE0
S21440329001231C46D068B04219D001330832072BB0
S2144032A0F7D100294DD02C4B1B68002B4DD0012365
S2144032B029485FFA83FC1C4650F833208AB1013314
S2144032C0072BF6D16FF00C00BDE8F0810024224BAE
S2144032D043F8341079BB00213046204B9847BDE870
S2144032E0F0811D4B43F8341003EBC4035E60BCF121
S2144032F0060F20D8184F07EBCC0E3B463C1D383700
S214403300754603E008330834BB4214D05A686968EF
S2144033109142F7D2B2F1FF3FF4D0224652F8048DE4
S214403320D3F804C095E8030082E80300CEF8008096
S214403330CEF804C0E6E701213046084B9847BDE882
S214403340F0816FF00C00BDE8F081034B19605E60C1
S2144033504FF0000CCEE700BFB8064320B144400013
S21440336070B5164604460D46002818BF002914BFFF
S2144033700120002034220449044B984723683246F3
S21440338029462046984770BD94C64000953A40006E
S21440339070B5164604460D46002818BF002914BFCF
S2144033A0012000203D220449044B9847636832467A
S2144033B029462046984770BD94C64000953A40003E
S2144033C038B504460D46002818BF002914BF012012
S2144033D0002031220349044B984729462046034B98
S2144033E0984738BDA8C64000953A4000D13C4000BA
S2144033F0F0B583B00D4616461F460446442208499B
S214403400003018BF0120074B98479DF820300093A6
S2144034103B46324629462046034CA04703B0F0BD03
S214403420A8C64000953A40000D3D400038B50D46D0
S21440343004464D220549003018BF0120044B9847EA
S21440344029462046034B984738BD00BFA8C64000D3
S214403450953A4000CD3D400038B50D4604465622CC
S2144034600549003018BF0120044B9847294620469E
S214403470034B984738BD00BFA8C64000953A400069
S214403480D13D400010B5044660220549003018BFC3
S2144034900120044B98472046034B984710BD00BF79
S2144034A0A8C64000953A4000DB3D400010B50446B3
S2144034B069220549003018BF0120044B9847204632
S2144034C0034B984710BD00BFA8C64000953A400041
S2144034D0E13D400070B50D46164604467222064948
S2144034E0003018BF0120054B9847324629462046F3
S2144034F0034B984770BD00BFA8C64000953A4000B1
S214403500253E400010B504467B220549003018BFD2
S2144035100120044B98472046034B984710BD00BFF8
S214403520A8C64000953A40006D3E400038B5044677
S2144035300D46002818BF002914BF01200020842211
S2144035400349044B984729462046034B984738BDC5
S214403550A8C64000953A4000993E4000F0B583B07A
S2144035600D4616461F46044690220A49003018BFAC
S2144035700120094B98479DF824300193BDF8203030
S21440358000933B46324629462046044CA04703B0AB
S214403590F0BD00BFA8C64000953A4000E93E400056
S2144035A070B5164604460D46002818BF002914BFBD
S2144035B001200020B5220449044B9847324629464C
S2144035C02046034B984770BDA8C64000953A400039
S2144035D0D940400070B5164604460D46002818BF30
S2144035E0002914BF01200020BE220449044B9847FE
S2144035F0324629462046034B984770BDA8C6400031
S214403600953A40005141400010B50446C72205494E
S214403610003018BF0120044B98472046034B98477C
S21440362010BD00BFA8C64000953A4000D5414000B6
S21440363010B50446D0220549003018BF0120044B7F
S21440364098472046034B984710BD00BFA8C6400089
S214403650953A4000FD41400008B5436903B198479C
S21440366008BD08B5836903B1984708BD38B5044618
S2144036700D46002818BF002914BF01200020332221
S2144036800649074B984729462046064B9847064B1F
S2144036902360064B6360002038BD00BFC4C64000B0
S2144036A0953A400001464000593640006336400097
S2144036B010B504464A220949003018BF0120084B7D
S2144036C098472046074B984720B92046064B9847D0
S2144036D0002010BD6FF0100010BD00BFC4C64000F3
S2144036E0953A4000014840005D474000F8B50D4619
S2144036F016461F4604467C220649003018BF012065
S214403700054B98473B46324629462046034CA04741
S2144037100020F8BDC4C64000953A4000A947400086
S214403720F8B5844607682FB18D683C460026C2F13E
S214403730010E0BE00E4B9847F8BD7344A068034457
S214403740AB420AD22368264653B11C46636893426E
S214403750F3D8A06803449B1AF2E7A74204D0344645
S2144037602046044B9847F8BD6046014B9847F8BD45
S214403770BD3A4000E93A40002DE9F0474469076900
S21440378001370761037E13F0010F13D1037E13F058
S214403790020F0FD154B36368FB1AA268934207D353
S2144037A0064600F11408DFF84890DFF848A012E01B
S2144037B0BDE8F087037E43F002030376BDE8F0875A
S2144037C07569E3682046984785B12C466B68FB1AB6
S2144037D0AA6893420AD34046C847237C012BEFD1C0
S2144037E067603A4621464046D047E9E7BDE8F0875D
S2144037F0F13A40002137400038B504460D460028CF
S21440380018BF002914BF012000203B220549064B63
S214403810984729462046054B984700202061044B90
S214403820236038BDDCC64000953A4000094A400057
S2144038307937400010B5044653220949003018BF76
S2144038400120084B98472046074B984720B920460A
S214403850064B9847002010BD6FF0100010BD00BF0B
S214403860DCC64000953A4000074B4000F94A40000D
S21440387038B50D4604466F220549003018BF012072
S214403880044B984729462046034B9847002038BDAE
S214403890DCC64000953A4000014B400070B582B00F
S2144038A004460D46002818BF002914BF01200020FA
S2144038B07A221D491D4B9847237E43F00103237609
S2144038C004F1140629463046194B984788B92369AF
S2144038D06B60226929463046164B9847237E03F094
S2144038E0FE032376237E13F0020F0ED1002002B093
S2144038F070BD237E03F0FE0323767F220A49002014
S2144039000A4B98476FF01100F1E701A80A4B984719
S214403910237E03F0FD0323762046084B984701A8F4
S214403920074B98470020E2E7DCC64000953A400047
S2144039309B3A40002137400021314000114B400067
S2144039402F3140002DE9F8430F469146002918BF15
S214403950002A14BF012300230446F12212490028FE
S2144039600CBF002003F00100104B98470834104D60
S2144039702046A8470028FBD0013F0026DFF83880C5
S2144039800B4D17F8011F2046C0472046A847002881
S214403990FBD001364E45F4D3064D2046A8470028B6
S2144039A0FBD03046BDE8F883F4C64000953A400068
S2144039B0F94C4000214D4000B14C40002DE9F84301
S2144039C00F469146002918BF002A14BF0123002342
S2144039D004464FF486720E4900280CBF002003F0C0
S2144039E001000C4B9847013F002608340A4DDFF88B
S2144039F02C802046A8470028FBD02046C04707F822
S214403A00010F01364E45F4D33046BDE8F88300BF7B
S214403A10F4C64000953A4000494D4000D54C400021
S214403A2038B504460D46002818BF002914BF0120AB
S214403A30002034220749084B9847294604F10800DD
S214403A40064B9847034618B9054A6260054A226005
S214403A50184638BDF4C64000953A4000454C4000F4
S214403A60BD3940004539400010B50446532206494A
S214403A70003018BF0120054B984704F10800044B5E
S214403A809847002010BD00BFF4C64000953A40005D
S214403A907D4C400000B900BE704703684BB18B4276
S214403AA009D01B681BB19942FBD10120704700200A
S214403AB070470020704701207047000038B5044624
S214403AC00D46064B984780F0010039220449C0B2A3
S214403AD0044B984723682B60256038BD9B3A4000CE
S214403AE010C74000953A400003680B60016070477D
S214403AF003680BB11A680260184670470346064AC8
S214403B00126822B1044A10680344136070470349A0
S214403B10014A1160F6E700BFF0064320E00E43205E
S214403B204FF0FF3070474FF400534B600020704713
S214403B30012070470020704743B2002B09DB5B0929
S214403B4000F01F00012202FA00F04033014A42F81A
S214403B502300704700E100E04FF4967303FB00F04B
S214403B6070470000014B03FB00F07047E0930400F1
S214403B7000B583B001A80E4B98470E4AD2F888305D
S214403B8043F47003C2F88830BFF34F8FBFF36F8F94
S214403B9001A8094B9847094A136823F4706343F415
S214403BA0C0631360064B984703B05DF804FB00BF44
S214403BB02131400000ED00E02F314000000C0E4067
S214403BC01145400070B504463E220B49003018BFF0
S214403BD001200A4B98476568A068E168E269636D12
S214403BE0802626606560A060E160E2616365002330
S214403BF023650523236070BD30C74000953A4000DA
S214403C002DE9F041884615461F460446061C18BF57
S214403C10012698222B4930462B4B984705F03F010A
S214403C2041EA080115F4807F04D015F4006F0BD0EC
S214403C3041F4845115F4804F18BF41F40061276168
S214403C40616105F480520DE015F4005F14BF41F445
S214403C50865141F48251EDE713F41B0F0ED113F059
S214403C60010F11D1236C002AF6D013F41F0FF6D0A3
S214403C702046164B98470020BDE8F0812046134B5F
S214403C8098470020BDE8F08115F4005F02D101207E
S214403C90BDE8F0817F220B4930460B4B9847236C9A
S214403CA04FF0FF3203F03003202B08D0236C013A4C
S214403CB0F8D12046054B98470020BDE8F08101200A
S214403CC0BDE8F08130C74000953A4000C53B400013
S214403CD038B505460C46002818BF002914BF0120F9
S214403CE00020CB220749084B98472C607223A360DC
S214403CF0E361112363654FF4E0636360052323604B
S214403D00002038BD30C74000953A40002DE9F041CC
S214403D100D4616461C469DF81880074620B3006898
S214403D20003018BF012040F217122549254B98470E
S214403D303B68B8F1000F19D05A6D42F480725A654C
S214403D40214AB2EB460F18D30132B2FBF6F106FB1E
S214403D50112686B902394A0811F0010F0ED059686B
S214403D6041F4803159600DE00020DCE75A6D22F4C2
S214403D7080725A65E4E70139EDE70022596821F47C
S214403D8080315960596821F0FF01D2B20A435A6027
S214403D9095B9042C07D0082C0AD0012C0AD06FF015
S214403DA00C00BDE8F0818022DA600020BDE8F0819A
S214403DB0C022F9E70022F7E76FF00C00BDE8F0817B
S214403DC030C74000953A4000FFA2E11100207047FE
S214403DD000290CBF042000207047012070470000D7
S214403DE010B50446B8B10068003018BF012040F254
S214403DF089120A490A4B98472268536823F460534D
S214403E005360002313614FF410635361136C13F037
S214403E10010FFBD010BD0020E9E700BF30C74000CF
S214403E20953A400070B50C4615460646A8B100685F
S214403E30003018BF01204FF4D2720949094B984709
S214403E403068436823F46053436000210165816114
S214403E502B462246044CA04770BD0020EBE700BF2F
S214403E6030C74000953A4000013C400010B504463B
S214403E7058B10068003018BF012040F2BB12044918
S214403E80044B98472368186A10BD0020F5E700BF2A
S214403E9030C74000953A400038B50C460546E0B17C
S214403EA00068003018BF012040F2CF120C490D4B7D
S214403EB098472D68231D04F114012A6A100E03F852
S214403EC0040C100C03F8030C100A03F8020C03F859
S214403ED0012C04338B42F0D138BD0020E4E700BF0C
S214403EE030C74000953A40002DE9F0410D469046D7
S214403EF01E46BDF818700446002832D000680030D0
S214403F0018BF01204FF4F8722449254B9847206883
S214403F10436843F4C053436016F0030F436814BF2E
S214403F2043F4005323F40053436005F40043002B4E
S214403F3014BF4FF480314FF4A02115F4803F12D0C7
S214403F4041F40011C6F30803836100220023C4E94C
S214403F5002232682678243462A46124CA047BDE883
S214403F60F0810020CEE747EA0643836115F4003F20
S214403F7002D041F42011E8E715F4802F02D041F436
S214403F808011E2E715F4002FDFD115F4801F02D030
S214403F9041F40021D9E70020BDE8F08130C7400059
S214403FA0953A4000013C4000F8B50D4604460028CE
S214403FB032D00068003018BF012040F265221C490C
S214403FC01C4B98472068238A03F00303002B14BF3A
S214403FD001260426184A036C13421FD113F0020F21
S214403FE0F9D0036B2B60F6B20027D4E9022392196E
S214403FF07B41C4E90223268A648AA6FB0445AB4279
S21440400008BFA24212D30C4A036C13420AD113F0E3
S214404010006FF9D00120F8BD0020CEE7074B984747
S2144040200020F8BD054B98470020F8BD0120F8BD9C
S21440403030C74000953A4000000060C0C53B400095
S214404040F8B50D460446002831D00068003018BF49
S214404050012040F299221C491C4B98472068238A2D
S21440406003F00303002B14BF01260426184A036CF2
S21440407013421ED113F0040FF9D04563F6B2002761
S214404080D4E9022392197B41C4E90223268A648A32
S214404090A6FB0445AB4208BFA24212D30C4A036CAF
S2144040A013420AD113F0200FF9D00120F8BD0020AA
S2144040B0CFE7084B98470020F8BD064B98470020AE
S2144040C0F8BD0120F8BD00BF30C74000953A40001B
S2144040D0000060C0C53B40002DE9F0410D46144647
S2144040E0074668B30068003018BF0120DFF85880E4
S2144040F040F2CE224146134EB04740F2CF224146D0
S214404100201C18BF0120B0474FF434724146281C8B
S21440411018BF0120B0473B8A03FB04F403F00303B7
S214404120002B14BF012604263CB1DFF82080294628
S2144041303846C0473544A41BF9D10120BDE8F0817C
S2144041400020D3E7953A400030C74000A93F4000E2
S2144041502DE9F0410D461446064638B30068003057
S21440416018BF0120DFF8688040F2E7224146164F2C
S214404170B8474FF43A724146201C18BF0120B84752
S21440418040F2E9224146281C18BF0120B847338A2E
S21440419003FB04F413F0030F0AD18CB10B4F55F810
S2144041A0041B3046B847043CF9D109E00020D9E763
S2144041B034B1064F15F8011B3046B847013CF9D1DB
S2144041C00120BDE8F08100BF953A400041404000E4
S2144041D030C7400008B550B10068003018BF012015
S2144041E040F203320349044B9847012008BD0020A3
S2144041F0F6E700BF30C74000953A400008B550B1DA
S2144042000068003018BF012040F20E320349044BCC
S2144042109847012008BD0020F6E700BF30C74000A1
S214404220953A4000D9B130B40D460438002450F8D1
S214404230041F11F0010F0DD10123022211420AD1B1
S21440424052000133202BF9D10134AC42EFD14FF06C
S214404250FF3002E0002303EB441030BC70474FF0C1
S214404260FF3070472DE9F04786B000230193029354
S214404270039304930593344B1868F822334900306F
S21440428018BF0120324B9847324BDA6C9B6C134078
S2144042900193314AD16C926C0A40029213432F4AE2
S2144042A0D16C926C0A40039213432D49CA6C896CB8
S2144042B00A400492134343D0DFF898A0DFF89C905E
S2144042C0DFF89C80052101A8264B98470446B0F1AC
S2144042D0FF3F1AD01C4F0126224D20463B68984788
S2144042E0631106AA02EB830304F01F0406FA04F4E3
S2144042F053F8142C22EA040243F8142C052101A892
S214404300A8470446B0F1FF3FE7D1DAF84C20DAF888
S2144043104830134001931049C86C8A6C02400292A0
S2144043201343D9F84C10D9F848200A400392134357
S214404330D8F84C10D8F848200A4004921343C1D10C
S21440434006B0BDE8F08700BFF4064320C4C740006F
S214404350953A4000000E0E4000100E4000120E40EF
S21440436000140E4025424000F8B50546071C18BF0D
S2144043700127304E40F26312314638462E4CA04755
S214404380E02231463846A047D22231463846A0473A
S2144043902A4C2C44640A14F0FF0308D0012B0AD0A0
S2144043A0022B43D0032B43D06FF01000F8BD002102
S2144043B003E00020F8BD012359B2214ECB005A1A23
S2144043C006EB82029068C5F8B000D068C5F8C00019
S2144043D01069C5F8C4009269C5F8D0205B1A06EB90
S2144043E083035B69C5F8D430D22212493846124B53
S2144043F0984756FA84F494F97030002BD9DB590963
S21440440003F01F03012202FA03F30E4A01F12000D3
S21440441042F82030BFF34F8FBFF36F8F01F160003B
S21440442042F8203042F821300020F8BD0223C3E78E
S2144044300323C1E7C4C74000953A400000F2F1BFED
S2144044404CC7400000E100E008B5014B984708BD66
S2144044506542400008B5014B984708BD654240009C
S21440446008B5014B984708BD6542400008B5014B6A
S214404470984708BD6542400038B505460648074C93
S214404480A0470748A0470748A0470748A047074B0C
S2144044901D60002038BD00BF000E0E40694340003E
S2144044A000100E4000120E4000140E40F40643204A
S2144044B02DE9F04104460F46DFF850804FF4D8729D
S2144044C041469F288CBF002001200E4EB047E5B2E3
S2144044D0C32241469F2D8CBF00200120B0476D0966
S2144044E0094B03EB452504F01F0437B9012303FAB3
S2144044F004F46C640020BDE8F081012303FA04F460
S2144045002C64F7E7953A4000000E0E40C4C74000C2
S2144045101D490A6A22F002021C4B13430B620A46EC
S214404520936E13F0010FFBD0174B196A184A0A43D3
S2144045301A62996A174A0A409A62174A9A621A4653
S214404540936E13F0020FFBD00F4A136B23F07003E9
S2144045501363936E13F0080FFBD00B4A136B23F4D0
S214404560407343F480731363936E13F0080FFBD0CD
S214404570054A136B23F0030343F002031363936E61
S21440458013F0080FFBD0704700060E40013E370080
S21440459000003701FFFF00F8013F1820084B984203
S2144045A00CD003F57033984201D0002070470123A9
S2144045B01801C31A034800EB830070470023F7E74F
S2144045C000000240E0C7400008B50369DB6913B14C
S2144045D0036803B1984708BD08B5024B1868024BFC
S2144045E0984708BDF8064320C945400008B5024B29
S2144045F05868024B984708BDF8064320C945400016
S214404600F8B505460C46081C18BF01204FF4BF728B
S2144046104B494C4B984720464B4B98472C618368F8
S2144046202360C368E3670369C4F880304369E36581
S2144046308369A366C369C4F8C030036AE366436A05
S214404640C4F82C34836AC4F84C34C36AFBB10023E4
S2144046501A461B01076B07EB030EDEF80460F95C95
S214404660103149016650DEF80C60F95C103104EBFD
S21440467041114E60DEF80810FB5C04EB4313C3F8B0
S2144046800C12013252B21346C16A8A42E1D3436BDE
S214404690DBB100231A4603EB4303816B01EB830E29
S2144046A0DEF8047011F8236004EB0616C6F838717D
S2144046B0DEF8086011F8233013331B01E650013250
S2144046C052B21346416B8A42E5D3204B9C4231D0CE
S2144046D01F4B9C4231D090F90430002B28DB5A09FE
S2144046E003F01F03012101FA03F32032194941F870
S2144046F02230BFF34F8FBFF36F8F90F90430002BFB
S21440470016DB5A0903F01F03012101FA03F3603256
S214404710104941F8223090F90430002B08DB590943
S21440472003F01F03012202FA03F30A4A42F821303B
S2144047300020F8BD084B1D60CDE7074B5D60CAE71B
S214404740B8C84000953A40009D45400000000240F1
S21440475000C0054000E100E0F806432070B504467E
S21440476040F2B5120D49003018BF01200C4B984757
S21440477020690C4B9847C36A7BB10022134601263A
S2144047802169056B1201AA5C06FA02F24A600133FF
S2144047905BB21A46C16A8B42F2D370BDB8C84000BD
S2144047A0953A40009D4540002DE9F0410E46904622
S2144047B01C4607464FF4E9720E49002818BFB0451C
S2144047C034BF012000200C4B98473D6928460B4BD0
S2144047D098472301026BD25C05EB4215C5F8088268
S2144047E03A69016BCB5C02EB4313C3F81062BDE839
S2144047F0F08100BFB8C84000953A40009D45400053
S21440480010B5044640F2DB120649003018BF0120BE
S214404810054B98472369D86810F00F0018BF012051
S21440482010BD00BFB8C84000953A40000020704711
S21440483010B5044668B10068003018BF01203F221A
S2144048400549064B9847064B1C6023680020586075
S21440485010BD0020F3E700BFD0C84000953A4000A6
S2144048601807432038B50C460546002869D000682E
S214404870003018BF0120C1223349344B98472A687C
S214404880D168D368994203D0D368D1688B42FBD1B4
S214404890C3F30721C3F3021202EB820003F00F02B8
S2144048A002EB400202EB820202EB8202080900EBB6
S2144048B0800001F00F0101EB400101EB8202E28033
S2144048C0C3F3044211098800014402F00F0202EBD0
S2144048D041026271C3F305631A0902EB820203F0D8
S2144048E00F0303EB420323712A6891689368994249
S2144048F003D0936891688B42FBD1C3F305421109FC
S21440490002F00F0201EB810102EB410213F4800F2B
S21440491018BF0C32A270C3F30622110901EB8101C5
S21440492002F00F0202EB4102627003F07F031A09A5
S21440493002EB820203F00F0303EB420323700020D6
S21440494038BD002097E700BFD0C84000953A4000E9
S21440495008B50A4B1868036802225A6203689A69C7
S21440496012F0020F05D1054B1B681B6802221A6223
S21440497008BD0222DA6143689847F4E718074320E7
S214404980034B6FF07F425A6005221A60704700BFA3
S21440499010E000E00B0EFBB130B45D1EEDB22846D1
S2144049A0124A6FF07F4454609460136813F4803F5B
S2144049B0FBD00138C0B2FF28F5D1A5EB05650C4BFE
S2144049C00B44E918094B596099601A46136813F46A
S2144049D0803FFBD030BC7047044B596099601A4604
S2144049E0136813F4803FFBD0704700BF10E000E030
S2144049F0010000FF08B5C3681B6A13F0100F00D112
S214404A0008BD03689847FBE7F8B507460C46334BA6
S214404A101B6899425AD0314B5B6A99424FD0002569
S214404A20AE68FC6096222E4901202E4B984716F41D
S214404A30004F18BF46F4142666606B696361AB6925
S214404A40A361EB682363EB69E361102363622B6920
S214404A50C4F8D830244B9C423AD0244B9C423AD09F
S214404A6095F90430002B28DB5A0903F01F03012177
S214404A7001FA03F320321E4941F82230BFF34F8F2C
S214404A80BFF36F8F95F90430002B16DB5A0903F0FD
S214404A901F03012101FA03F36032154941F8223021
S214404AA095F90430002B08DB590903F01F03012257
S214404AB002FA03F30E4A42F821300020F8BD0123E3
S214404AC0DD002B44054D05EB8305A9E70023F7E7FA
S214404AD0084B1F60C4E7074B5F60C1E700004020FB
S214404AE0E8C84000953A400000C000400040014001
S214404AF000E100E01C074320C36805221A607047A7
S214404B00C368D9617047C368186AC0F300407047ED
S214404B1008B5C3680A4A126893420FD0084A526AD8
S214404B20934204D000231879064B984708BD0122CB
S214404B30D3001A44024B03EB8203F4E70022F7E764
S214404B4000004020393B40000020704708B5024B2B
S214404B501868024B984708BD1C074320F54940009B
S214404B6008B5024B5868024B984708BD1C074320BF
S214404B70F549400010B5044640F22B220549003066
S214404B8018BF0120044B984704482044C0F38730A0
S214404B9010BD00BF08C94000953A400000C0FDBFA8
S214404BA010B5044640F287220949003018BF01205C
S214404BB0084B98472046084B9847012805D040F2B6
S214404BC0912203490020034B9847002010BD00BFA8
S214404BD008C94000953A4000754B400010B5044661
S214404BE040F29E221149003018BF0120104B9847D2
S214404BF02046104B9847104BC4F8E43000236360BF
S214404C006362A362AC2222604FF4807222604FF44B
S214404C100022226000EB4000084A02EB8000426817
S214404C206260074A2262184610BD00BF08C94000AD
S214404C30953A4000A14B400000415355FCC8400007
S214404C402C0A0100F8B50C46094E0746BD223146EF
S214404C50003018BF0120074DA847BE223146201C11
S214404C6018BF0120A8473C602046034B9847F8BD34
S214404C7008C94000953A4000DD4B400070B50A4EEA
S214404C80044640F205123146003018BF0120074D59
S214404C90A847246840F2C7223146201C18BF01208E
S214404CA0A8475023236070BD08C94000953A40008D
S214404CB038B50C4605464FF4D4720449003018BF48
S214404CC00120034B98472B68DC6138BD08C940007B
S214404CD0953A400010B504464FF4DD720449003062
S214404CE018BF0120034B984723689869C0B210BD8F
S214404CF008C94000953A400010B5044640F2C31239
S214404D000549003018BF0120044B9847236858696E
S214404D10C0F3400010BD00BF08C94000953A4000AF
S214404D2010B504464FF4E6720549003018BF01201E
S214404D30044B984723685869C0F3402010BD00BF15
S214404D4008C94000953A400010B504464FF4EF724B
S214404D500549003018BF0120044B9847236858691E
S214404D6000F0010010BD00BF08C94000953A400061
S214404D700020704710B582B007480468637B2268FD
S214404D8001798068A47F003418BF01240094034C46
S214404D90A04702B010BD00BF24074320F1334000B7
S214404DA008B104207047344BDA68002A34D0B2F990
S214404DB00030B3F1FF3F2FD0DBB258092F4901EB4B
S214404DC04021C86B03F01F03012101FA03F303429D
S214404DD008BF00215388994204D00422264B9A7675
S214404DE002207047244B9B7E042B05D0012B08D015
S214404DF0032B17D10320704701221F4B9A760220BF
S214404E0070471D4B02229A761D4A1A6101225A7734
S214404E10002283F82E2005E0174B9B7E033BDBB237
S214404E20012B1BD910B5144B1B7913B3124B188E9C
S214404E30B0FA80F0400940F22C421249124B984793
S214404E400D4C0023237104F1100323600F4B984749
S214404E50A07E022814BF0020012010BD064B02226F
S214404E609A76074A1A6101225A77002283F82E2042
S214404E70D8E70120DFE700BF24074320000E0E409E
S214404E80801A0600C0C94000953A4000754D400063
S214404E902DE9F04106460F4614469846069D40F2D8
S214404EA076321049281C18BF01200F4B98476002E5
S214404EB040EAC86040EA077040EAC6702A78024373
S214404EC041F23431094B9868094B9847044610B96B
S214404ED02046BDE8F081054B9868064B98472870F9
S214404EE0F6E700BFC0C94000953A4000240743207B
S214404EF0D53440000535400008B5054B1B7903B155
S214404F0008BD0021024B9868024B9847F8E700BF5F
S214404F10240743202D34400010B4054B04249C76CF
S214404F20FF241C719860D9605A635DF8044B704743
S214404F30240743202DE9F04395B0AA4B98470446F2
S214404F40012805D0A84B9847204615B0BDE8F08309
S214404F5014AF082307F8453DA44E33684FF00108C8
S214404F6083F80B8000251D731D81B068A04B9847C1
S214404F7000972B460622294640469E4FB8472A466B
S214404F804FF48041B0689C4B984730B9974B1B68AC
S214404F9003249C72944B9847D6E74FF4D57245F25B
S214404FA00851B068944B9847002840F0A4804FF0D2
S214404FB00008002244F205518C4B98688E4B984767
S214404FC0002840F0A680894B1B68DB7A13F0010F5F
S214404FD040F0C980002245F20311844B9868864B06
S214404FE098470028D2D0814D2E68A868834B9847B2
S214404FF0000C30812B68DA7A12F0010F3ED01A8905
S214405000120441F60931A8687B4B98470028BDD06A
S21440501029680E31A8687A4B98472A68517C794BA4
S21440502001F0070053F820504FF47A7000FB05F06B
S214405030C1F3C30103EB8103DB6903FB00F3136099
S214405040937B9B0940F0E280917D507D137D9B02CF
S21440505043EA800343EAA113107ED17D490041EA2A
S214405060E011C3F30B03013301F0070102318B401B
S214405070D17C01F00F018B409B0A53605B4B1A6852
S2144050801289120443F2071198685B4B9847002830
S2144050903FF47CAF554B1B68DA7A12F0010F40F0B4
S2144050A0C280524B1B68DB7A13F0040F00F052812B
S2144050B0092500274F4EA5F1090303AA1344009380
S2144050C03B462A4639463846B04701350D2DF2D183
S2144050D09DF80D309DF80C9009EB03299DF80E3095
S2144050E009EB03499DF80F3009EB03694E464FF034
S2144050F00008404FEDE0B068404B9847B0F1FF3FA6
S21440510000F02782C0F30B00B0F5D57F7FF43EAFAA
S2144051104FE7364B9868394B984710F0E04F3FF4CE
S21440512052AF41F28935314E334FDFF8D09000F41C
S214405130FC1244F20551B068B84700283FF426AF49
S214405140B068C847002802DB013DF0D11EE710F0EA
S214405150006F04D1254B1B680422DA723AE7234BD2
S2144051601B680522DA72B8F1000F274B14BF984629
S2144051704FF4FC1840F635061C4D1F4FDFF87C9068
S214405180002241F23711A868B84758B1424644F267
S2144051902951A868B84728B1A868C847002806DB40
S2144051A0013EEDD1114B1B680022DA72EEE610F09C
S2144051B0804F05D00D4B1A68D37A43F00803D3725C
S2144051C00A4B1B68DB7A13F0010F3FF403AF002253
S2144051D045F60231054B9868074B984700287FF400
S2144051E0F9AED3E6A14D4000F94E400024074320D7
S2144051F0AD344000914E4000D53440000535400067
S2144052002D35400024C9400000801F40D17D907D50
S214405210537D1B0443EA00230B43C3F315030133BA
S2144052205B0253602AE71A89120441F237119A4BFF
S21440523098689A4B984700283FF4A8AE01230193FC
S214405240009308230022964993488068954DA847C6
S21440525000283FF49BAE012204A98F4B9868924BDE
S214405260984700283FF492AE8B4B98688F4B9847F0
S21440527000283FF48BAE9DF8103003F00F03012B4F
S2144052800CD033B1022B0ED0834B1B6810221A73FE
S21440529007E7814B1B6810221A7302E77E4B1B6898
S2144052A01A221A73FDE69DF81230DB097A4B1B680A
S2144052B014BF302220221A73F3E69DF81130002BDB
S2144052C03FF464AE02331E4409F580739E423FF6B7
S2144052D05DAE002504AB2B4400934346AA194146D5
S2144052E04046B8470135032DF4D19DF81030FF2BCA
S2144052F03FF44CAE222BE0D19DF81230002BDCD18F
S21440530006F1060935464FF00008694FAB1B04AA64
S2144053101344009343462A4641464046B847013523
S214405320A945F3D19DF81530322B28BF32235A4A6F
S2144053301068604A03F0070152F821504FF47A7122
S21440534001FB05F1C3F3C30302EB8303DB6903FBF5
S21440535001F30360504B19799868574B98470328D8
S21440536026D94D4B1B68DB7A13F0040F4ED14A4BBF
S2144053701B68DA7A12F0010F18D01A89120441F22B
S2144053803711454B9868454B984700283FF4FEAD8B
S214405390022241F20611404B9868404B984700283D
S2144053A03FF4F4AD3C4B1B6804225A73434B98477A
S2144053B0394B9868424B984780B1374B1B68DB7A2D
S2144053C013F0040F43D1344B1B68DA7A12F0010F06
S2144053D002D01B7B102B77D8384B98472E4B1B6838
S2144053E0DB7A13F0010F0AD04FF4007241F210112D
S2144053F0294B9868294B984700283FF4C7AD264B61
S2144054001B6800229A722F4B98479DE504AB009389
S2144054100023082219461846254DA84700283FF481
S214405420B5AD9DF91030002BA1DA14AB022203F87B
S214405430402D00930123072200211846A847002844
S2144054403FF4A4AD144B1B6804225A738FE704AB99
S21440545000930023132219461846154DA8470028E6
S2144054603FF494AD9DF8103013F0010FABD014AB61
S214405470022203F8402D00930123132200211846F0
S214405480A84700283FF482AD034B1B6801229A7759
S2144054901A6852001A6096E724074320D534400025
S2144054A0331108005D354000A13540000936400004
S2144054B0914E400024C9400059344000754D40008C
S2144054C085344000F94E400040252A46002104A875
S2144054D0214B98470123019300932B461F4A2049AE
S2144054E020488068204DA84700283FF44FAD012251
S2144054F004A91C4B98681D4B984700283FF446ADBE
S214405500184B98681A4B984700283FF43FAD154B08
S2144055109868184B984710F0800F7FF437AD9DF889
S214405520203003F00F030F2B3FF456AF9DF82D307D
S2144055309DF82C2053EA02237FF428AD094DA86835
S2144055400D4B98472B6801229A771A6852001A60CA
S21440555042E74FF000082CE54778400001FFFF8007
S21440556006110800240743205D354000A135400061
S2144055700936400005354000AD34400008B5054BBF
S214405580984708B1002008BD034B9847034B1B685B
S214405590D87A08BDA14D4000F94E4000240743206C
S2144055A008B5054B984708B1002008BD034B9847FF
S2144055B0034B1B68586808BDA14D4000F94E40009B
S2144055C024074320114B5B6BDBB103EB800133F9BF
S2144055D02030B3F1FF3F16D0DBB258090C4A02EB3D
S2144055E04022D06B03F01F03012202FA03F303426A
S2144055F014BF104600204B88984214BF002001205C
S2144056007047002070470020704700BF24074320A3
S214405610000E0E402DE9F04782B08A469146294B4F
S2144056209847804618B1404602B0BDE8F087264D00
S214405630264C274E274F23681A89120441F20D1133
S214405640A068B04730B1A068B84710F4807F18D142
S214405650013DF0D1204B98474FF00508E3E71B4B40
S21440566098681C4B98471D4B03402BB9174BA3F823
S2144056703090A3F83890D6E7174B98474FF0050878
S214405680D1E7174B1749B9F1010F98BF19460F4B91
S2144056901B68DB7A13F0080F01D14FEA4A2A0B4BFE
S2144056A0986801230193CDF800904FF4007352465A
S2144056B00D4CA0470028D2D1074B98474FF005081D
S2144056C0B1E700BFA14D4000410D03002407432031
S2144056D0D534400005354000F94E4000000058E4FF
S2144056E011110800121110005D35400070B50646D5
S2144056F00C460D4D288E40F2A7520C49A04234BFAE
S214405700002001200A4B984722463146A868094B9C
S214405710984718B900222A86052070BD024A138E83
S2144057201C1B1486002070BD24074320C0C94000BF
S214405730953A4000A135400010B50446164B98688F
S214405740164B984708B9052010BD94B10022124B5D
S2144057501A86114B1B8F012B11D0002243F20C11DD
S2144057600D4B98680E4B984768B10E4B98470020F3
S21440577010BD094B1B8E002BEBD0002010BD094BF3
S2144057809847002010BD002243F20C11024B986847
S214405790034B9847E9E700BF2407432009364000FB
S2144057A0D5344000F94E4000F0B583B007460E466B
S2144057B015461C4B9847044610B1204603B0F0BD32
S2144057C03846194B9847D0B9184B1949012D98BF00
S2144057D01946184B1B68DB7A13F0080F08BF760291
S2144057E0144B98680123019300954FF4007332469A
S2144057F0114EB04738B9114B98470524DDE70F4B9B
S21440580098470724D9E70B4B98680D4B98470D4BA4
S21440581003401BB9074B1D861D87CEE7074B9847AD
S2144058200524CAE7A14D4000C55540001891080020
S21440583019911000240743205D354000F94E400082
S21440584005354000000058E470B506460C460D4D40
S214405850288E40F2FA520C49A04234BF0020012064
S2144058600A4B984722463146A868094B984718B9CC
S21440587000222A86052070BD024A138E1C1B148601
S214405880002070BD24074320C0C94000953A400020
S214405890D535400010B50446144B9868144B9847CD
S2144058A008B9052010BD94B10022104B1A860F4B44
S2144058B01B8F012B11D0002243F20C110B4B986822
S2144058C00C4B984768B90C4B9847052010BD074BC2
